{
  "abi": [
    {
      "type": "constructor",
      "inputs": [
        {
          "name": "_owner",
          "type": "address",
          "internalType": "address"
        },
        {
          "name": "_strikePrice",
          "type": "uint256",
          "internalType": "uint256"
        }
      ],
      "stateMutability": "nonpayable"
    },
    {
      "type": "function",
      "name": "bid",
      "inputs": [
        {
          "name": "side",
          "type": "uint8",
          "internalType": "enum BinaryOptionMarket.Side"
        }
      ],
      "outputs": [],
      "stateMutability": "payable"
    },
    {
      "type": "function",
      "name": "claimReward",
      "inputs": [],
      "outputs": [],
      "stateMutability": "nonpayable"
    },
    {
      "type": "function",
      "name": "currentPhase",
      "inputs": [],
      "outputs": [
        {
          "name": "",
          "type": "uint8",
          "internalType": "enum BinaryOptionMarket.Phase"
        }
      ],
      "stateMutability": "view"
    },
    {
      "type": "function",
      "name": "expireMarket",
      "inputs": [],
      "outputs": [],
      "stateMutability": "nonpayable"
    },
    {
      "type": "function",
      "name": "feePercentage",
      "inputs": [],
      "outputs": [
        {
          "name": "",
          "type": "uint256",
          "internalType": "uint256"
        }
      ],
      "stateMutability": "view"
    },
    {
      "type": "function",
      "name": "fees",
      "inputs": [],
      "outputs": [
        {
          "name": "poolFee",
          "type": "uint256",
          "internalType": "uint256"
        },
        {
          "name": "creatorFee",
          "type": "uint256",
          "internalType": "uint256"
        },
        {
          "name": "refundFee",
          "type": "uint256",
          "internalType": "uint256"
        }
      ],
      "stateMutability": "view"
    },
    {
      "type": "function",
      "name": "hasClaimed",
      "inputs": [
        {
          "name": "",
          "type": "address",
          "internalType": "address"
        }
      ],
      "outputs": [
        {
          "name": "",
          "type": "bool",
          "internalType": "bool"
        }
      ],
      "stateMutability": "view"
    },
    {
      "type": "function",
      "name": "longBids",
      "inputs": [
        {
          "name": "",
          "type": "address",
          "internalType": "address"
        }
      ],
      "outputs": [
        {
          "name": "",
          "type": "uint256",
          "internalType": "uint256"
        }
      ],
      "stateMutability": "view"
    },
    {
      "type": "function",
      "name": "oracleDetails",
      "inputs": [],
      "outputs": [
        {
          "name": "strikePrice",
          "type": "uint256",
          "internalType": "uint256"
        },
        {
          "name": "finalPrice",
          "type": "string",
          "internalType": "string"
        }
      ],
      "stateMutability": "view"
    },
    {
      "type": "function",
      "name": "owner",
      "inputs": [],
      "outputs": [
        {
          "name": "",
          "type": "address",
          "internalType": "address"
        }
      ],
      "stateMutability": "view"
    },
    {
      "type": "function",
      "name": "positions",
      "inputs": [],
      "outputs": [
        {
          "name": "long",
          "type": "uint256",
          "internalType": "uint256"
        },
        {
          "name": "short",
          "type": "uint256",
          "internalType": "uint256"
        }
      ],
      "stateMutability": "view"
    },
    {
      "type": "function",
      "name": "renounceOwnership",
      "inputs": [],
      "outputs": [],
      "stateMutability": "nonpayable"
    },
    {
      "type": "function",
      "name": "resolveMarket",
      "inputs": [],
      "outputs": [],
      "stateMutability": "nonpayable"
    },
    {
      "type": "function",
      "name": "resolved",
      "inputs": [],
      "outputs": [
        {
          "name": "",
          "type": "bool",
          "internalType": "bool"
        }
      ],
      "stateMutability": "view"
    },
    {
      "type": "function",
      "name": "shortBids",
      "inputs": [
        {
          "name": "",
          "type": "address",
          "internalType": "address"
        }
      ],
      "outputs": [
        {
          "name": "",
          "type": "uint256",
          "internalType": "uint256"
        }
      ],
      "stateMutability": "view"
    },
    {
      "type": "function",
      "name": "startTrading",
      "inputs": [],
      "outputs": [],
      "stateMutability": "nonpayable"
    },
    {
      "type": "function",
      "name": "totalDeposited",
      "inputs": [],
      "outputs": [
        {
          "name": "",
          "type": "uint256",
          "internalType": "uint256"
        }
      ],
      "stateMutability": "view"
    },
    {
      "type": "function",
      "name": "transferOwnership",
      "inputs": [
        {
          "name": "newOwner",
          "type": "address",
          "internalType": "address"
        }
      ],
      "outputs": [],
      "stateMutability": "nonpayable"
    },
    {
      "type": "function",
      "name": "withdraw",
      "inputs": [],
      "outputs": [],
      "stateMutability": "nonpayable"
    },
    {
      "type": "event",
      "name": "Bid",
      "inputs": [
        {
          "name": "side",
          "type": "uint8",
          "indexed": false,
          "internalType": "enum BinaryOptionMarket.Side"
        },
        {
          "name": "account",
          "type": "address",
          "indexed": true,
          "internalType": "address"
        },
        {
          "name": "value",
          "type": "uint256",
          "indexed": false,
          "internalType": "uint256"
        }
      ],
      "anonymous": false
    },
    {
      "type": "event",
      "name": "MarketOutcome",
      "inputs": [
        {
          "name": "winningSide",
          "type": "uint8",
          "indexed": false,
          "internalType": "enum BinaryOptionMarket.Side"
        },
        {
          "name": "user",
          "type": "address",
          "indexed": true,
          "internalType": "address"
        },
        {
          "name": "isWinner",
          "type": "bool",
          "indexed": false,
          "internalType": "bool"
        }
      ],
      "anonymous": false
    },
    {
      "type": "event",
      "name": "MarketResolved",
      "inputs": [
        {
          "name": "finalPrice",
          "type": "string",
          "indexed": false,
          "internalType": "string"
        },
        {
          "name": "timeStamp",
          "type": "uint256",
          "indexed": false,
          "internalType": "uint256"
        }
      ],
      "anonymous": false
    },
    {
      "type": "event",
      "name": "OwnershipTransferred",
      "inputs": [
        {
          "name": "previousOwner",
          "type": "address",
          "indexed": true,
          "internalType": "address"
        },
        {
          "name": "newOwner",
          "type": "address",
          "indexed": true,
          "internalType": "address"
        }
      ],
      "anonymous": false
    },
    {
      "type": "event",
      "name": "RewardClaimed",
      "inputs": [
        {
          "name": "account",
          "type": "address",
          "indexed": true,
          "internalType": "address"
        },
        {
          "name": "value",
          "type": "uint256",
          "indexed": false,
          "internalType": "uint256"
        }
      ],
      "anonymous": false
    },
    {
      "type": "event",
      "name": "Withdrawal",
      "inputs": [
        {
          "name": "user",
          "type": "address",
          "indexed": true,
          "internalType": "address"
        },
        {
          "name": "amount",
          "type": "uint256",
          "indexed": false,
          "internalType": "uint256"
        }
      ],
      "anonymous": false
    },
    {
      "type": "error",
      "name": "OwnableInvalidOwner",
      "inputs": [
        {
          "name": "owner",
          "type": "address",
          "internalType": "address"
        }
      ]
    },
    {
      "type": "error",
      "name": "OwnableUnauthorizedAccount",
      "inputs": [
        {
          "name": "account",
          "type": "address",
          "internalType": "address"
        }
      ]
    }
  ],
  "bytecode": {
    "object": "0x6080604052600a600b5534801561001557600080fd5b5060405161151238038061151283398101604081905261003491610188565b816001600160a01b03811661006457604051631e4fbdf760e01b8152600060048201526024015b60405180910390fd5b61006d816100cb565b5060408051808201825282815281518083019092526001808352600360fc1b60208481019190915282018390528151815590916002906100ad9082610261565b5050600a805461ff0019169055506100c43361011b565b505061031f565b600080546001600160a01b038381166001600160a01b0319831681178455604051919092169283917f8be0079c531659141344cd1fd0a4f28419497f9722a3daafe3b4186f6b6457e09190a35050565b610123610159565b6001600160a01b03811661014d57604051631e4fbdf760e01b81526000600482015260240161005b565b610156816100cb565b50565b6000546001600160a01b031633146101865760405163118cdaa760e01b815233600482015260240161005b565b565b6000806040838503121561019b57600080fd5b82516001600160a01b03811681146101b257600080fd5b6020939093015192949293505050565b634e487b7160e01b600052604160045260246000fd5b600181811c908216806101ec57607f821691505b60208210810361020c57634e487b7160e01b600052602260045260246000fd5b50919050565b601f82111561025c57806000526020600020601f840160051c810160208510156102395750805b601f840160051c820191505b818110156102595760008155600101610245565b50505b505050565b81516001600160401b0381111561027a5761027a6101c2565b61028e8161028884546101d8565b84610212565b6020601f8211600181146102c257600083156102aa5750848201515b600019600385901b1c1916600184901b178455610259565b600084815260208120601f198516915b828110156102f257878501518255602094850194600190920191016102d2565b50848210156103105786840151600019600387901b60f8161c191681555b50505050600190811b01905550565b6111e48061032e6000396000f3fe6080604052600436106101145760003560e01c806373b2e80e116100a0578063a001ecdd11610064578063a001ecdd14610313578063b88a802f14610329578063ba5b79821461033e578063f2fde38b1461036e578063ff50abdc1461038e57600080fd5b806373b2e80e146102495780638da5cb5b1461027957806398508ecd146102a15780639af1d35a146102c45780639e891f3e146102fe57600080fd5b806333500e26116100e757806333500e26146101b55780633ccfd60b146101c85780633f6fa655146101dd57806351b72dc514610207578063715018a61461023457600080fd5b8063055ad42e146101195780631955e1461461014e578063293230b8146101895780632b9b55b3146101a0575b600080fd5b34801561012557600080fd5b50600a5461013890610100900460ff1681565b6040516101459190610e7f565b60405180910390f35b34801561015a57600080fd5b5061017b610169366004610e99565b600c6020526000908152604090205481565b604051908152602001610145565b34801561019557600080fd5b5061019e6103a4565b005b3480156101ac57600080fd5b5061019e610435565b61019e6101c3366004610ec9565b610624565b3480156101d457600080fd5b5061019e6107c8565b3480156101e957600080fd5b50600a546101f79060ff1681565b6040519015158152602001610145565b34801561021357600080fd5b5061017b610222366004610e99565b600d6020526000908152604090205481565b34801561024057600080fd5b5061019e610876565b34801561025557600080fd5b506101f7610264366004610e99565b600e6020526000908152604090205460ff1681565b34801561028557600080fd5b506000546040516001600160a01b039091168152602001610145565b3480156102ad57600080fd5b506102b661088a565b604051610145929190610f30565b3480156102d057600080fd5b506006546007546008546102e392919083565b60408051938452602084019290925290820152606001610145565b34801561030a57600080fd5b5061019e610921565b34801561031f57600080fd5b5061017b600b5481565b34801561033557600080fd5b5061019e6109aa565b34801561034a57600080fd5b50600454600554610359919082565b60408051928352602083019190915201610145565b34801561037a57600080fd5b5061019e610389366004610e99565b610cb7565b34801561039a57600080fd5b5061017b60095481565b6103ac610cf5565b6000600a54610100900460ff1660038111156103ca576103ca610e69565b1461041c5760405162461bcd60e51b815260206004820152601b60248201527f4d61726b6574206e6f7420696e2062696464696e67207068617365000000000060448201526064015b60405180910390fd5b600a80546001919061ff001916610100835b0217905550565b61043d610cf5565b6001600a54610100900460ff16600381111561045b5761045b610e69565b146104a85760405162461bcd60e51b815260206004820152601b60248201527f4d61726b6574206e6f7420696e2074726164696e6720706861736500000000006044820152606401610413565b600a805461ff00191661020017905560408051808201909152600280825261031360f41b60208301526001906104de8382610ff0565b50600a805460ff191660011790556040517ff5373daccd034d47b6154bae9edd1c805141531157a31fe8b99ac137c37b52009061051e90849084906110af565b60405180910390a160006105bd60018001805461053a90610f67565b80601f016020809104026020016040519081016040528092919081815260200182805461056690610f67565b80156105b35780601f10610588576101008083540402835291602001916105b3565b820191906000526020600020905b81548152906001019060200180831161059657829003601f168201915b5050505050610d22565b9050600060016000015482106105d5575060006105d9565b5060015b60006001600160a01b03167fcaf126c1b7df3cc94d90d37f4a60f866c0c7c56f50d45e3136fc1dc71e210eba8260016040516106169291906110e5565b60405180910390a250505050565b6000600a54610100900460ff16600381111561064257610642610e69565b146106865760405162461bcd60e51b81526020600482015260146024820152734e6f7420696e2062696464696e6720706861736560601b6044820152606401610413565b600034116106d65760405162461bcd60e51b815260206004820152601f60248201527f56616c7565206d7573742062652067726561746572207468616e207a65726f006044820152606401610413565b60008160018111156106ea576106ea610e69565b036107335734600460000160008282546107049190611118565b9091555050336000908152600c602052604081208054349290610728908490611118565b909155506107729050565b34600460010160008282546107489190611118565b9091555050336000908152600d60205260408120805434929061076c908490611118565b90915550505b34600960008282546107849190611118565b909155505060405133907f70bd4a33bf447720d717d08f3affb5aecfe4d2ebb8e3dd94539f5313e2447643906107bd9084903490611131565b60405180910390a250565b47806108165760405162461bcd60e51b815260206004820152601760248201527f4e6f2062616c616e636520746f2077697468647261772e0000000000000000006044820152606401610413565b604051339082156108fc029083906000818181858888f19350505050158015610843573d6000803e3d6000fd5b5060405181815233907f7fcf532c15f0a6db0bd6d0e038bea71d30d808c7d98cb3bf7268a95bf5081b65906020016107bd565b61087e610cf5565b6108886000610e19565b565b600180546002805491929161089e90610f67565b80601f01602080910402602001604051908101604052809291908181526020018280546108ca90610f67565b80156109175780601f106108ec57610100808354040283529160200191610917565b820191906000526020600020905b8154815290600101906020018083116108fa57829003601f168201915b5050505050905082565b610929610cf5565b6002600a54610100900460ff16600381111561094757610947610e69565b146109945760405162461bcd60e51b815260206004820152601c60248201527f4d61726b6574206e6f7420696e206d61747572697479207068617365000000006044820152606401610413565b600a80546003919061ff0019166101008361042e565b6003600a54610100900460ff1660038111156109c8576109c8610e69565b14610a155760405162461bcd60e51b815260206004820152601a60248201527f4d61726b6574206e6f7420696e206578706972792070686173650000000000006044820152606401610413565b600a5460ff16610a675760405162461bcd60e51b815260206004820152601a60248201527f4d61726b6574206973206e6f74207265736f6c766564207965740000000000006044820152606401610413565b336000908152600e602052604090205460ff1615610ac05760405162461bcd60e51b815260206004820152601660248201527514995dd85c9908185b1c9958591e4818db185a5b595960521b6044820152606401610413565b6000610ad460018001805461053a90610f67565b905060006001600001548210610aec57506000610af0565b5060015b6000808080846001811115610b0757610b07610e69565b03610b3357336000908152600c602052604090205460045490935091508215610b2e575060015b610b55565b336000908152600d602052604090205460055490935091508215610b55575060015b336001600160a01b03167fcaf126c1b7df3cc94d90d37f4a60f866c0c7c56f50d45e3136fc1dc71e210eba8583604051610b909291906110e5565b60405180910390a260008311610be85760405162461bcd60e51b815260206004820152601b60248201527f4e6f206465706f73697473206f6e2077696e6e696e67207369646500000000006044820152606401610413565b60008260095485610bf9919061114c565b610c039190611163565b905060006064600b5483610c17919061114c565b610c219190611163565b90506000610c2f8284611185565b336000818152600e6020526040808220805460ff1916600117905551929350909183156108fc0291849190818181858888f19350505050158015610c77573d6000803e3d6000fd5b5060405181815233907f106f923f993c2149d49b4255ff723acafa1f2d94393f561d3eda32ae348f72419060200160405180910390a25050505050505050565b610cbf610cf5565b6001600160a01b038116610ce957604051631e4fbdf760e01b815260006004820152602401610413565b610cf281610e19565b50565b6000546001600160a01b031633146108885760405163118cdaa760e01b8152336004820152602401610413565b60008181805b8251811015610e1157603060f81b838281518110610d4857610d48611198565b01602001516001600160f81b03191610801590610d895750603960f81b838281518110610d7757610d77611198565b01602001516001600160f81b03191611155b610dcc5760405162461bcd60e51b8152602060048201526014602482015273496e76616c696420707269636520737472696e6760601b6044820152606401610413565b6030838281518110610de057610de0611198565b0160200151610df2919060f81c611185565b610dfd83600a61114c565b610e079190611118565b9150600101610d28565b509392505050565b600080546001600160a01b038381166001600160a01b0319831681178455604051919092169283917f8be0079c531659141344cd1fd0a4f28419497f9722a3daafe3b4186f6b6457e09190a35050565b634e487b7160e01b600052602160045260246000fd5b6020810160048310610e9357610e93610e69565b91905290565b600060208284031215610eab57600080fd5b81356001600160a01b0381168114610ec257600080fd5b9392505050565b600060208284031215610edb57600080fd5b813560028110610ec257600080fd5b6000815180845260005b81811015610f1057602081850181015186830182015201610ef4565b506000602082860101526020601f19601f83011685010191505092915050565b828152604060208201526000610f496040830184610eea565b949350505050565b634e487b7160e01b600052604160045260246000fd5b600181811c90821680610f7b57607f821691505b602082108103610f9b57634e487b7160e01b600052602260045260246000fd5b50919050565b601f821115610feb57806000526020600020601f840160051c81016020851015610fc85750805b601f840160051c820191505b81811015610fe85760008155600101610fd4565b50505b505050565b815167ffffffffffffffff81111561100a5761100a610f51565b61101e816110188454610f67565b84610fa1565b6020601f821160018114611052576000831561103a5750848201515b600019600385901b1c1916600184901b178455610fe8565b600084815260208120601f198516915b828110156110825787850151825560209485019460019092019101611062565b50848210156110a05786840151600019600387901b60f8161c191681555b50505050600190811b01905550565b6040815260006110c26040830185610eea565b90508260208301529392505050565b600281106110e1576110e1610e69565b9052565b604081016110f382856110d1565b82151560208301529392505050565b634e487b7160e01b600052601160045260246000fd5b8082018082111561112b5761112b611102565b92915050565b6040810161113f82856110d1565b8260208301529392505050565b808202811582820484141761112b5761112b611102565b60008261118057634e487b7160e01b600052601260045260246000fd5b500490565b8181038181111561112b5761112b611102565b634e487b7160e01b600052603260045260246000fdfea2646970667358221220dc46337b61b380fe94ff0f957e9700ff20dd2d2c646e8f58abbfaeab20cf52d664736f6c634300081b0033",
    "linkReferences": {}
  },
  "methodIdentifiers": {
    "bid(uint8)": "33500e26",
    "claimReward()": "b88a802f",
    "currentPhase()": "055ad42e",
    "expireMarket()": "9e891f3e",
    "feePercentage()": "a001ecdd",
    "fees()": "9af1d35a",
    "hasClaimed(address)": "73b2e80e",
    "longBids(address)": "1955e146",
    "oracleDetails()": "98508ecd",
    "owner()": "8da5cb5b",
    "positions()": "ba5b7982",
    "renounceOwnership()": "715018a6",
    "resolveMarket()": "2b9b55b3",
    "resolved()": "3f6fa655",
    "shortBids(address)": "51b72dc5",
    "startTrading()": "293230b8",
    "totalDeposited()": "ff50abdc",
    "transferOwnership(address)": "f2fde38b",
    "withdraw()": "3ccfd60b"
  },
  "id": 0
}