{"abi":[{"type":"constructor","inputs":[{"name":"_owner","type":"address","internalType":"address"},{"name":"_strikePrice","type":"uint256","internalType":"uint256"}],"stateMutability":"nonpayable"},{"type":"function","name":"bid","inputs":[{"name":"side","type":"uint8","internalType":"enum BinaryOptionMarket.Side"}],"outputs":[],"stateMutability":"payable"},{"type":"function","name":"claimReward","inputs":[],"outputs":[],"stateMutability":"nonpayable"},{"type":"function","name":"currentPhase","inputs":[],"outputs":[{"name":"","type":"uint8","internalType":"enum BinaryOptionMarket.Phase"}],"stateMutability":"view"},{"type":"function","name":"expireMarket","inputs":[],"outputs":[],"stateMutability":"nonpayable"},{"type":"function","name":"feePercentage","inputs":[],"outputs":[{"name":"","type":"uint256","internalType":"uint256"}],"stateMutability":"view"},{"type":"function","name":"fees","inputs":[],"outputs":[{"name":"poolFee","type":"uint256","internalType":"uint256"},{"name":"creatorFee","type":"uint256","internalType":"uint256"},{"name":"refundFee","type":"uint256","internalType":"uint256"}],"stateMutability":"view"},{"type":"function","name":"hasClaimed","inputs":[{"name":"","type":"address","internalType":"address"}],"outputs":[{"name":"","type":"bool","internalType":"bool"}],"stateMutability":"view"},{"type":"function","name":"longBids","inputs":[{"name":"","type":"address","internalType":"address"}],"outputs":[{"name":"","type":"uint256","internalType":"uint256"}],"stateMutability":"view"},{"type":"function","name":"oracleDetails","inputs":[],"outputs":[{"name":"strikePrice","type":"uint256","internalType":"uint256"},{"name":"finalPrice","type":"string","internalType":"string"}],"stateMutability":"view"},{"type":"function","name":"owner","inputs":[],"outputs":[{"name":"","type":"address","internalType":"address"}],"stateMutability":"view"},{"type":"function","name":"positions","inputs":[],"outputs":[{"name":"long","type":"uint256","internalType":"uint256"},{"name":"short","type":"uint256","internalType":"uint256"}],"stateMutability":"view"},{"type":"function","name":"renounceOwnership","inputs":[],"outputs":[],"stateMutability":"nonpayable"},{"type":"function","name":"resolveMarket","inputs":[],"outputs":[],"stateMutability":"nonpayable"},{"type":"function","name":"resolved","inputs":[],"outputs":[{"name":"","type":"bool","internalType":"bool"}],"stateMutability":"view"},{"type":"function","name":"shortBids","inputs":[{"name":"","type":"address","internalType":"address"}],"outputs":[{"name":"","type":"uint256","internalType":"uint256"}],"stateMutability":"view"},{"type":"function","name":"startTrading","inputs":[],"outputs":[],"stateMutability":"nonpayable"},{"type":"function","name":"totalDeposited","inputs":[],"outputs":[{"name":"","type":"uint256","internalType":"uint256"}],"stateMutability":"view"},{"type":"function","name":"transferOwnership","inputs":[{"name":"newOwner","type":"address","internalType":"address"}],"outputs":[],"stateMutability":"nonpayable"},{"type":"function","name":"withdraw","inputs":[],"outputs":[],"stateMutability":"nonpayable"},{"type":"event","name":"Bid","inputs":[{"name":"side","type":"uint8","indexed":false,"internalType":"enum BinaryOptionMarket.Side"},{"name":"account","type":"address","indexed":true,"internalType":"address"},{"name":"value","type":"uint256","indexed":false,"internalType":"uint256"}],"anonymous":false},{"type":"event","name":"MarketOutcome","inputs":[{"name":"winningSide","type":"uint8","indexed":false,"internalType":"enum BinaryOptionMarket.Side"},{"name":"user","type":"address","indexed":true,"internalType":"address"},{"name":"isWinner","type":"bool","indexed":false,"internalType":"bool"}],"anonymous":false},{"type":"event","name":"MarketResolved","inputs":[{"name":"finalPrice","type":"string","indexed":false,"internalType":"string"},{"name":"timeStamp","type":"uint256","indexed":false,"internalType":"uint256"}],"anonymous":false},{"type":"event","name":"OwnershipTransferred","inputs":[{"name":"previousOwner","type":"address","indexed":true,"internalType":"address"},{"name":"newOwner","type":"address","indexed":true,"internalType":"address"}],"anonymous":false},{"type":"event","name":"RewardClaimed","inputs":[{"name":"account","type":"address","indexed":true,"internalType":"address"},{"name":"value","type":"uint256","indexed":false,"internalType":"uint256"}],"anonymous":false},{"type":"event","name":"Withdrawal","inputs":[{"name":"user","type":"address","indexed":true,"internalType":"address"},{"name":"amount","type":"uint256","indexed":false,"internalType":"uint256"}],"anonymous":false},{"type":"error","name":"OwnableInvalidOwner","inputs":[{"name":"owner","type":"address","internalType":"address"}]},{"type":"error","name":"OwnableUnauthorizedAccount","inputs":[{"name":"account","type":"address","internalType":"address"}]}],"bytecode":{"object":"0x6080604052600a600b5534801561001557600080fd5b5060405161151a38038061151a83398101604081905261003491610188565b816001600160a01b03811661006457604051631e4fbdf760e01b8152600060048201526024015b60405180910390fd5b61006d816100cb565b5060408051808201825282815281518083019092526001808352600360fc1b60208481019190915282018390528151815590916002906100ad9082610261565b5050600a805461ff0019169055506100c43361011b565b505061031f565b600080546001600160a01b038381166001600160a01b0319831681178455604051919092169283917f8be0079c531659141344cd1fd0a4f28419497f9722a3daafe3b4186f6b6457e09190a35050565b610123610159565b6001600160a01b03811661014d57604051631e4fbdf760e01b81526000600482015260240161005b565b610156816100cb565b50565b6000546001600160a01b031633146101865760405163118cdaa760e01b815233600482015260240161005b565b565b6000806040838503121561019b57600080fd5b82516001600160a01b03811681146101b257600080fd5b6020939093015192949293505050565b634e487b7160e01b600052604160045260246000fd5b600181811c908216806101ec57607f821691505b60208210810361020c57634e487b7160e01b600052602260045260246000fd5b50919050565b601f82111561025c57806000526020600020601f840160051c810160208510156102395750805b601f840160051c820191505b818110156102595760008155600101610245565b50505b505050565b81516001600160401b0381111561027a5761027a6101c2565b61028e8161028884546101d8565b84610212565b6020601f8211600181146102c257600083156102aa5750848201515b600019600385901b1c1916600184901b178455610259565b600084815260208120601f198516915b828110156102f257878501518255602094850194600190920191016102d2565b50848210156103105786840151600019600387901b60f8161c191681555b50505050600190811b01905550565b6111ec8061032e6000396000f3fe6080604052600436106101145760003560e01c806373b2e80e116100a0578063a001ecdd11610064578063a001ecdd14610313578063b88a802f14610329578063ba5b79821461033e578063f2fde38b1461036e578063ff50abdc1461038e57600080fd5b806373b2e80e146102495780638da5cb5b1461027957806398508ecd146102a15780639af1d35a146102c45780639e891f3e146102fe57600080fd5b806333500e26116100e757806333500e26146101b55780633ccfd60b146101c85780633f6fa655146101dd57806351b72dc514610207578063715018a61461023457600080fd5b8063055ad42e146101195780631955e1461461014e578063293230b8146101895780632b9b55b3146101a0575b600080fd5b34801561012557600080fd5b50600a5461013890610100900460ff1681565b6040516101459190610e87565b60405180910390f35b34801561015a57600080fd5b5061017b610169366004610ea1565b600c6020526000908152604090205481565b604051908152602001610145565b34801561019557600080fd5b5061019e6103a4565b005b3480156101ac57600080fd5b5061019e610435565b61019e6101c3366004610ed1565b610624565b3480156101d457600080fd5b5061019e6107c8565b3480156101e957600080fd5b50600a546101f79060ff1681565b6040519015158152602001610145565b34801561021357600080fd5b5061017b610222366004610ea1565b600d6020526000908152604090205481565b34801561024057600080fd5b5061019e61087e565b34801561025557600080fd5b506101f7610264366004610ea1565b600e6020526000908152604090205460ff1681565b34801561028557600080fd5b506000546040516001600160a01b039091168152602001610145565b3480156102ad57600080fd5b506102b6610892565b604051610145929190610f38565b3480156102d057600080fd5b506006546007546008546102e392919083565b60408051938452602084019290925290820152606001610145565b34801561030a57600080fd5b5061019e610929565b34801561031f57600080fd5b5061017b600b5481565b34801561033557600080fd5b5061019e6109b2565b34801561034a57600080fd5b50600454600554610359919082565b60408051928352602083019190915201610145565b34801561037a57600080fd5b5061019e610389366004610ea1565b610cbf565b34801561039a57600080fd5b5061017b60095481565b6103ac610cfd565b6000600a54610100900460ff1660038111156103ca576103ca610e71565b1461041c5760405162461bcd60e51b815260206004820152601b60248201527f4d61726b6574206e6f7420696e2062696464696e67207068617365000000000060448201526064015b60405180910390fd5b600a80546001919061ff001916610100835b0217905550565b61043d610cfd565b6001600a54610100900460ff16600381111561045b5761045b610e71565b146104a85760405162461bcd60e51b815260206004820152601b60248201527f4d61726b6574206e6f7420696e2074726164696e6720706861736500000000006044820152606401610413565b600a805461ff00191661020017905560408051808201909152600280825261031360f41b60208301526001906104de8382610ff8565b50600a805460ff191660011790556040517ff5373daccd034d47b6154bae9edd1c805141531157a31fe8b99ac137c37b52009061051e90849084906110b7565b60405180910390a160006105bd60018001805461053a90610f6f565b80601f016020809104026020016040519081016040528092919081815260200182805461056690610f6f565b80156105b35780601f10610588576101008083540402835291602001916105b3565b820191906000526020600020905b81548152906001019060200180831161059657829003601f168201915b5050505050610d2a565b9050600060016000015482106105d5575060006105d9565b5060015b60006001600160a01b03167fcaf126c1b7df3cc94d90d37f4a60f866c0c7c56f50d45e3136fc1dc71e210eba8260016040516106169291906110ed565b60405180910390a250505050565b6000600a54610100900460ff16600381111561064257610642610e71565b146106865760405162461bcd60e51b81526020600482015260146024820152734e6f7420696e2062696464696e6720706861736560601b6044820152606401610413565b600034116106d65760405162461bcd60e51b815260206004820152601f60248201527f56616c7565206d7573742062652067726561746572207468616e207a65726f006044820152606401610413565b60008160018111156106ea576106ea610e71565b036107335734600460000160008282546107049190611120565b9091555050336000908152600c602052604081208054349290610728908490611120565b909155506107729050565b34600460010160008282546107489190611120565b9091555050336000908152600d60205260408120805434929061076c908490611120565b90915550505b34600960008282546107849190611120565b909155505060405133907f70bd4a33bf447720d717d08f3affb5aecfe4d2ebb8e3dd94539f5313e2447643906107bd9084903490611139565b60405180910390a250565b6107d0610cfd565b478061081e5760405162461bcd60e51b815260206004820152601760248201527f4e6f2062616c616e636520746f2077697468647261772e0000000000000000006044820152606401610413565b604051339082156108fc029083906000818181858888f1935050505015801561084b573d6000803e3d6000fd5b5060405181815233907f7fcf532c15f0a6db0bd6d0e038bea71d30d808c7d98cb3bf7268a95bf5081b65906020016107bd565b610886610cfd565b6108906000610e21565b565b60018054600280549192916108a690610f6f565b80601f01602080910402602001604051908101604052809291908181526020018280546108d290610f6f565b801561091f5780601f106108f45761010080835404028352916020019161091f565b820191906000526020600020905b81548152906001019060200180831161090257829003601f168201915b5050505050905082565b610931610cfd565b6002600a54610100900460ff16600381111561094f5761094f610e71565b1461099c5760405162461bcd60e51b815260206004820152601c60248201527f4d61726b6574206e6f7420696e206d61747572697479207068617365000000006044820152606401610413565b600a80546003919061ff0019166101008361042e565b6003600a54610100900460ff1660038111156109d0576109d0610e71565b14610a1d5760405162461bcd60e51b815260206004820152601a60248201527f4d61726b6574206e6f7420696e206578706972792070686173650000000000006044820152606401610413565b600a5460ff16610a6f5760405162461bcd60e51b815260206004820152601a60248201527f4d61726b6574206973206e6f74207265736f6c766564207965740000000000006044820152606401610413565b336000908152600e602052604090205460ff1615610ac85760405162461bcd60e51b815260206004820152601660248201527514995dd85c9908185b1c9958591e4818db185a5b595960521b6044820152606401610413565b6000610adc60018001805461053a90610f6f565b905060006001600001548210610af457506000610af8565b5060015b6000808080846001811115610b0f57610b0f610e71565b03610b3b57336000908152600c602052604090205460045490935091508215610b36575060015b610b5d565b336000908152600d602052604090205460055490935091508215610b5d575060015b336001600160a01b03167fcaf126c1b7df3cc94d90d37f4a60f866c0c7c56f50d45e3136fc1dc71e210eba8583604051610b989291906110ed565b60405180910390a260008311610bf05760405162461bcd60e51b815260206004820152601b60248201527f4e6f206465706f73697473206f6e2077696e6e696e67207369646500000000006044820152606401610413565b60008260095485610c019190611154565b610c0b919061116b565b905060006064600b5483610c1f9190611154565b610c29919061116b565b90506000610c37828461118d565b336000818152600e6020526040808220805460ff1916600117905551929350909183156108fc0291849190818181858888f19350505050158015610c7f573d6000803e3d6000fd5b5060405181815233907f106f923f993c2149d49b4255ff723acafa1f2d94393f561d3eda32ae348f72419060200160405180910390a25050505050505050565b610cc7610cfd565b6001600160a01b038116610cf157604051631e4fbdf760e01b815260006004820152602401610413565b610cfa81610e21565b50565b6000546001600160a01b031633146108905760405163118cdaa760e01b8152336004820152602401610413565b60008181805b8251811015610e1957603060f81b838281518110610d5057610d506111a0565b01602001516001600160f81b03191610801590610d915750603960f81b838281518110610d7f57610d7f6111a0565b01602001516001600160f81b03191611155b610dd45760405162461bcd60e51b8152602060048201526014602482015273496e76616c696420707269636520737472696e6760601b6044820152606401610413565b6030838281518110610de857610de86111a0565b0160200151610dfa919060f81c61118d565b610e0583600a611154565b610e0f9190611120565b9150600101610d30565b509392505050565b600080546001600160a01b038381166001600160a01b0319831681178455604051919092169283917f8be0079c531659141344cd1fd0a4f28419497f9722a3daafe3b4186f6b6457e09190a35050565b634e487b7160e01b600052602160045260246000fd5b6020810160048310610e9b57610e9b610e71565b91905290565b600060208284031215610eb357600080fd5b81356001600160a01b0381168114610eca57600080fd5b9392505050565b600060208284031215610ee357600080fd5b813560028110610eca57600080fd5b6000815180845260005b81811015610f1857602081850181015186830182015201610efc565b506000602082860101526020601f19601f83011685010191505092915050565b828152604060208201526000610f516040830184610ef2565b949350505050565b634e487b7160e01b600052604160045260246000fd5b600181811c90821680610f8357607f821691505b602082108103610fa357634e487b7160e01b600052602260045260246000fd5b50919050565b601f821115610ff357806000526020600020601f840160051c81016020851015610fd05750805b601f840160051c820191505b81811015610ff05760008155600101610fdc565b50505b505050565b815167ffffffffffffffff81111561101257611012610f59565b611026816110208454610f6f565b84610fa9565b6020601f82116001811461105a57600083156110425750848201515b600019600385901b1c1916600184901b178455610ff0565b600084815260208120601f198516915b8281101561108a578785015182556020948501946001909201910161106a565b50848210156110a85786840151600019600387901b60f8161c191681555b50505050600190811b01905550565b6040815260006110ca6040830185610ef2565b90508260208301529392505050565b600281106110e9576110e9610e71565b9052565b604081016110fb82856110d9565b82151560208301529392505050565b634e487b7160e01b600052601160045260246000fd5b808201808211156111335761113361110a565b92915050565b6040810161114782856110d9565b8260208301529392505050565b80820281158282048414176111335761113361110a565b60008261118857634e487b7160e01b600052601260045260246000fd5b500490565b818103818111156111335761113361110a565b634e487b7160e01b600052603260045260246000fdfea26469706673582212202dc44a3485229ebe4eb63d59ba3e6088a38da2652b992d2e9d5ce53c82a7a26364736f6c634300081b0033","linkReferences":{}},"methodIdentifiers":{"bid(uint8)":"33500e26","claimReward()":"b88a802f","currentPhase()":"055ad42e","expireMarket()":"9e891f3e","feePercentage()":"a001ecdd","fees()":"9af1d35a","hasClaimed(address)":"73b2e80e","longBids(address)":"1955e146","oracleDetails()":"98508ecd","owner()":"8da5cb5b","positions()":"ba5b7982","renounceOwnership()":"715018a6","resolveMarket()":"2b9b55b3","resolved()":"3f6fa655","shortBids(address)":"51b72dc5","startTrading()":"293230b8","totalDeposited()":"ff50abdc","transferOwnership(address)":"f2fde38b","withdraw()":"3ccfd60b"},"id":0}