{
  "abi": [
    {
      "type": "function",
      "name": "deploy",
      "inputs": [
        {
          "name": "salt",
          "type": "bytes32",
          "internalType": "bytes32"
        },
        {
          "name": "bytecode",
          "type": "bytes",
          "internalType": "bytes"
        }
      ],
      "outputs": [],
      "stateMutability": "nonpayable"
    },
    {
      "type": "function",
      "name": "getAddress",
      "inputs": [
        {
          "name": "salt",
          "type": "bytes32",
          "internalType": "bytes32"
        },
        {
          "name": "bytecode",
          "type": "bytes",
          "internalType": "bytes"
        }
      ],
      "outputs": [
        {
          "name": "",
          "type": "address",
          "internalType": "address"
        }
      ],
      "stateMutability": "view"
    },
    {
      "type": "event",
      "name": "Deployed",
      "inputs": [
        {
          "name": "addr",
          "type": "address",
          "indexed": false,
          "internalType": "address"
        },
        {
          "name": "salt",
          "type": "bytes32",
          "indexed": false,
          "internalType": "bytes32"
        }
      ],
      "anonymous": false
    }
  ],
  "bytecode": {
    "object": "0x6080604052348015600f57600080fd5b506102888061001f6000396000f3fe608060405234801561001057600080fd5b50600436106100365760003560e01c8063cdcb760a1461003b578063d959fd0e14610050575b600080fd5b61004e61004936600461018f565b6100d6565b005b6100ba61005e36600461018f565b8051602091820120604080516001600160f81b0319818501523060601b6bffffffffffffffffffffffff191660218201526035810194909452605580850192909252805180850390920182526075909301909252815191012090565b6040516001600160a01b03909116815260200160405180910390f35b6000828251602084016000f590506001600160a01b0381166101325760405162461bcd60e51b815260206004820152601160248201527011195c1b1bde5b595b9d0819985a5b1959607a1b604482015260640160405180910390fd5b604080516001600160a01b0383168152602081018590527f94bfd9af14ef450884c8a7ddb5734e2e1e14e70a1c84f0801cc5a29e34d26428910160405180910390a1505050565b634e487b7160e01b600052604160045260246000fd5b600080604083850312156101a257600080fd5b82359150602083013567ffffffffffffffff8111156101c057600080fd5b8301601f810185136101d157600080fd5b803567ffffffffffffffff8111156101eb576101eb610179565b604051601f8201601f19908116603f0116810167ffffffffffffffff8111828210171561021a5761021a610179565b60405281815282820160200187101561023257600080fd5b81602084016020830137600060208383010152809350505050925092905056fea2646970667358221220da365eb9f647e31d1d75aa6440d8bc6171901fa54305702a274a48419bc37bfe64736f6c634300081b0033",
    "linkReferences": {}
  },
  "methodIdentifiers": {
    "deploy(bytes32,bytes)": "cdcb760a",
    "getAddress(bytes32,bytes)": "d959fd0e"
  },
  "id": 1
}